:100000000A168A116E2D83120313CC004C08F900D6
:100010007908F0000430FA007A08F1004D300A1631
:100020008A1156260A128A11831203135008F80007
:100030004F08F7004E08F6004D08F5001F2808008D
:100040007B0883120313CC007C08CD007D08CE0012
:1000500003104D0D4E0DCF004F08D400D408031DE2
:10006000322833283B280030F8000030F9000030F7
:10007000FA00E528E5287808CC007908CD007A0850
:10008000CE0003104D0D4E0DCF004F08D500D50802
:10009000031D4B284C2854280030F8000030F9008C
:1000A0000030FA00E528E5280030D1000030D20009
:1000B0000030D30089305507CC004C08D4027B08AF
:1000C000CC007C08CD007D08CE0010300310CE0C93
:1000D000CD0CCC0CFF3E031D66284C08CF004F080A
:1000E000D5007808CC007908CD007A08CE00103011
:1000F0000310CE0CCD0CCC0CFF3E031D78284C0811
:10010000CF004F08D5068030CC004C08D505FC1731
:10011000FF30FB05FF30FC050030FD05F917FF300F
:10012000F805FF30F9050030FA051830CC004C080E
:10013000D0009A2801300310D10DD20DD30DFF3E0F
:10014000031D9B287A087D02031DAC2879087C02D8
:10015000031DAC2878087B02031CAF28B028BC28FC
:100160007808FB027908031C790FFC027A08031C4B
:100170007A0AFD025114BC2801300310FB0DFC0D5E
:10018000FD0DFF3E031DBD280130D002031DC9280F
:10019000CA289A28CB285108F0005208F1005308C9
:1001A000F2005408CC004C08F3005508CD004D086F
:1001B000F4000A128A15D7200A128A117008F80072
:1001C0007108F9007208FA00E528080083128818FF
:1001D000EA28EB28F028881444088500081005292F
:1001E0000818F328F428F92808144608850008118F
:1001F00005290819FC28FD2805290815430885004C
:10020000881005290529052905290A128A15522170
:100210000A128A110B29831203134908EB006B0899
:10022000C5000030051A0130EB0049086B06FE39A5
:100230006B06C9000030851A0130EB00EB0D490850
:100240006B06FD396B06C900C708031D282929293B
:10025000172C4508490603192E292F29E529C50819
:10026000031D332934293B294908013A0319392947
:100270003A2961293B294508013A031D40294129B2
:1002800048294908033A0319462947296129482979
:100290004508033A031D4D294E2955294908023ABC
:1002A000031953295429612955294508023A031D88
:1002B0005A295B298829C908031D5F2960298829D3
:1002C00061292608EE002508ED002408EC00EB016A
:1002D0006E08CF006D08CE006C08CD006B08CC0016
:1002E0002308D3002208D2002108D1002008D00022
:1002F0000A128A158F260A128A11831203134F08D5
:10030000A3004E08A2004D08A1004C08A000E5295A
:10031000C908031D8C298D2994294508013A031920
:1003200092299329BA2994294908013A031D992948
:100330009A29A1294508033A03199F29A029BA2916
:10034000A1294908033A031DA629A729AE29450872
:10035000023A0319AC29AD29BA29AE294908023A53
:10036000031DB329B429E129C508031DB829B929FA
:10037000E129BA292608EE002508ED002408EC0042
:10038000EB016E08DC006D08DB006C08DA006B081E
:10039000D9002308E0002208DF002108DE00200841
:1003A000DD000A168A1107260A128A118312031326
:1003B0005C08A3005B08A2005A08A1005908A0002D
:1003C000E5294611E529E529E5292308F300220856
:1003D000F2002108F1002008F0003F30F7008030E3
:1003E000F6000030F5000030F4000A128A15592298
:1003F0000A128A11031CFD29FE29262A01308312C4
:100400000313BB070318BC0A0030BC073F30DC00F5
:100410008030DB000030DA000030D9002308E00033
:100420002208DF002108DE002008DD000A168A11FC
:1004300007260A128A11831203135C08A3005B08C3
:10044000A2005A08A1005908A000262ABF30F300D4
:100450008030F2000030F1000030F000831203130E
:100460002308F7002208F6002108F5002008F40010
:100470000A128A1559220A128A11031C402A412A9B
:10048000692AFF3083120313BB070318BC0AFF302D
:10049000BC073F30CF008030CE000030CD000030B0
:1004A000CC002308D3002208D2002108D100200864
:1004B000D0000A128A158F260A128A11831203139A
:1004C0004F08A3004E08A2004D08A1004C08A00050
:1004D000692A831203133E08C001C0073D08BF010B
:1004E000BF076F1E742A752AAA2A3C08803AFF00AB
:1004F00080307F02031D7E2A01303B02031C812ACB
:10050000822A912A00300A168A1159250A128A1164
:10051000FF3083120313BB070318BC0AFF30BC076C
:10052000A72A83120313BC1F962A972AA72A0130F1
:100530000A168A1159250A128A11013083120313EF
:10054000BB070318BC0A0030BC07A72AA72ABF01B3
:10055000C001AA2A4008BE01BE073F08BD01BD0771
:100560004108031DB42AB72AEF19B72ABA2A0A127A
:100570008A15BA2C4108013A031DBF2AC02AFD2A58
:10058000C7010314C70D06164610C1010030A700AD
:100590000030A8000030A900003083160313A30028
:1005A0000030A2000030A1000030A0000030A70001
:1005B0000030A6000030A5000030A4000030AC00E0
:1005C0000030AD000030AE000030AB000030AA00BB
:1005D0000030A9000030A8000030AF000030B000AB
:1005E0000030B1004E3083120313EC00EB30EB000F
:1005F000EB0BF82AEC0BF82AB72A831203134108F5
:10060000023A0319042B052B0C2B4108033A031D56
:100610000A2B0B2BB72A0C2B831603132F088312DC
:100620000313A70083160313300883120313A800D3
:1006300083160313310883120313A90083160313CF
:100640002B08A3002A08A2002908A1002808A0005E
:10065000003083120313E5008030E6003F30E700EE
:100660001230E8008330E9003A30EA000A128A15B5
:10067000E5220A128A11031C3E2B3F2BF62B831214
:100680000313EF1A442B462B0130472B0030EB00AD
:10069000EF184B2B4D2B01304E2B00306B060319FE
:1006A000522B532B672B2D08F0002E08F1002F083A
:1006B000F2000A128A1502200A128A1170088312A7
:1006C0000313AD007108AE007208AF00672BEF1284
:1006D000EF1C6B2BEF16831203133308F80034085A
:1006E000F9003508FA002D08D5002E08D6002F088D
:1006F000D7000030D2008030D3003F30D4000A123F
:100700008A1549250A128A11831203135208AD0073
:100710005308AE005408AF002D08FB002E08FC0063
:100720002F08FD000A168A1190270A128A11031851
:100730009A2B9B2BEA2B83120313C1010030A700D5
:100740000030A8000030A900003083160313A30076
:100750000030A2000030A1000030A000831203137B
:100760002D08F0002E08F1002F08F2000A128A1559
:100770007C230A128A11710883160313B701B70785
:100780007008B601B6073708F901F9073608F8010D
:10079000F8070A168A11B2250A128A1178088312FC
:1007A0000313DF007908E0007A08E1002D08E20079
:1007B0002E08E3002F08E4000A168A11E8250A1221
:1007C0008A11831203135F08AD006008AE00610850
:1007D000AF00F62B003083120313EF1801300A1616
:1007E0008A1159250A128A11F62BF62B8316031348
:1007F0002308AB002208AA002108A9002008A800AD
:1008000083120313270883160313AF008312031305
:10081000280883160313B0008312031329088316D4
:100820000313B100B72AB72AB72AB72AB72A831207
:100830004708013A031D1D2C1E2CE12EC508031D7F
:10084000222C232C2A2C4908013A0319282C292C64
:10085000502C2A2C4508013A031D2F2C302C372C04
:100860004908033A0319352C362C502C372C4508EF
:10087000033A031D3C2C3D2C442C4908023A031931
:10088000422C432C502C442C4508023A031D492C81
:100890004A2C822CC908031D4E2C4F2C822C502C24
:1008A0000030D2008030D3003F30D4002A08D50079
:1008B0002B08D6002C08D7000A128A1549250A12DF
:1008C0008A11831203135208AA005308AB0054087C
:1008D000AC002A08F0002B08F1002C08F2000A12E4
:1008E0008A157C230A128A11710883120313CD0121
:1008F000CD077008CC01CC070A168A1191260A127E
:100900008A11F42C83120313C908031D882C892C27
:10091000902C4508013A03198E2C8F2CB62C902C64
:100920004908013A031D952C962C9D2C4508033A45
:1009300003199B2C9C2CB62C9D2C4908033A031DB3
:10094000A22CA32CAA2C4508023A0319A82CA92CE6
:10095000B62CAA2C4908023A031DAF2CB02CE82C67
:10096000C508031DB42CB52CE82CB62C0030DF00D4
:100970008030E0003F30E1002A08E2002B08E3006D
:100980002C08E4000A168A11E8250A128A1183123B
:1009900003135F08AA006008AB006108AC002A08D6
:1009A000F0002B08F1002C08F2000A128A157C23B3
:1009B0000A128A11710883120313CD01CD07700842
:1009C000CC01CC070A168A1191260A128A11F42C3E
:1009D00083120313450849060319EF2CF02CF42C5D
:1009E0004611F42CF42CF42C831203134108031D3C
:1009F000FA2CB72AEF1DFD2CFE2CD72D4108013A09
:100A0000031D032D042D382D6F19072D082DB72A2E
:100A10003A08C001C0073908BF01BF075830F000CD
:100A20000230F1000A168A11C9250A128A11031C24
:100A30001A2D1B2D2E2D83120313C6100030AA0071
:100A40000030AB000030AC000030B0000030B1002E
:100A50000030B200CA01CB016F152E2D8312031393
:100A60004008BA01BA073F08B901B907B72AB72A3F
:100A70004108023A03193D2D3E2D452D4108033A08
:100A8000031D432D442DB72A452D3A08C001C00748
:100A90003908BF01BF075830F0000230F1000A16D4
:100AA0008A11C9250A128A11031C572D582DCC2DE5
:100AB000003083120313E5008030E6003F30E7008A
:100AC0001230E8008330E9003A30EA000A128A1551
:100AD000E5220A128A11031C6E2D6F2DCC2D0030D9
:100AE00083120313EF1801300A168A1159250A12CE
:100AF0008A1183120313EF1C7E2D7F2D992D003058
:100B0000DF008030E0003F30E1003008E2003108D3
:100B1000E3003208E4000A168A11E8250A128A1155
:100B2000831203135F08B0006008B1006108B200CF
:100B3000B22D0030D2008030D3003F30D4003008D6
:100B4000D5003108D6003208D7000A128A15492587
:100B50000A128A11831203135208B0005308B1001D
:100B60005408B2003008F0003108F1003208F200F9
:100B70000A128A157C230A128A1171088312031340
:100B8000CD01CD077008CC01CC070A168A11912639
:100B90000A128A11CC2DCC2D831203134008BA01FE
:100BA000BA073F08B901B907B72AB72AB72A4108D7
:100BB000013A031DDC2DDD2D552E6F1DE02DE12D9D
:100BC000E42D6F11C101BD2E0230EB006B08C70090
:100BD00006122A08F8002B08F9002C08FA00300841
:100BE000FB003108FC003208FD000A128A112020A7
:100BF0000A128A11780883120313A4007908A50049
:100C00007A08A6002A08F0002B08F1002C08F20050
:100C10000A128A157C230A128A117308831203139D
:100C2000CF007208CE007108CD007008CC000030F3
:100C30000A168A1146250A128A11831203133008F4
:100C4000F0003108F1003208F2000A128A157C2304
:100C50000A128A11730883120313CF007208CE00A0
:100C60007108CD007008CC0004300A168A114625A0
:100C70000A128A11831203132408F5002508F600CE
:100C80002608F70008300A168A1135250A128A113B
:100C900083120313260825042404031D502E512E0D
:100CA000BD2EC610BD2EBD2EBD2E4108023A031921
:100CB0005A2E5B2E622E4108033A031D602E612ED0
:100CC000BD2E622E0030EF1801300A168A11592508
:100CD0000A128A1183120313EF1C6F2E702E8A2EB4
:100CE0000030DF008030E0003F30E1003008E200FB
:100CF0003108E3003208E4000A168A11E8250A12D6
:100D00008A11831203135F08B0006008B100610804
:100D1000B200A32E0030D2008030D3003F30D40088
:100D20003008D5003108D6003208D7000A128A15DB
:100D300049250A128A11831203135208B00053087E
:100D4000B1005408B2003008F0003108F100320858
:100D5000F2000A128A157C230A128A117108831282
:100D60000313CD01CD077008CC01CC070A168A11F8
:100D700091260A128A11BD2EBD2E4E308312031306
:100D8000EC00EB30EB00EB0BC32EEC0BC32E83120D
:100D90000313C1010030A7000030A8000030A900F3
:100DA000003083160313A3000030A2000030A1001E
:100DB0000030A00083120313B901BA01B72AB72A81
:100DC000B72A4708023A031DE62EE72EB72A410844
:100DD000031DEB2EB72AEF1DEE2EEF2E532F4108E9
:100DE000023A0319F42EF52EFC2E4108033A031D96
:100DF000FA2EFB2EB72AFC2E3A08C001C00739088C
:100E0000BF01BF075830F0000230F1000A168A1106
:100E1000C9250A128A11031C0E2F0F2F492FD73014
:100E200083120313E5002330E6003C30E700003076
:100E3000E8000030E9000030EA000A128A15E522D5
:100E40000A128A11031C252F262F492F8312031300
:100E50004108023A031D2D2F2E2F352F0130CA07CE
:100E60000318CB0A0030CB073C2FFF30CA0703180A
:100E7000CB0AFF30CB073C2F4B08CD01CD074A08EA
:100E8000CC01CC070A168A1191260A128A11492F21
:100E9000492F831203134008BA01BA073F08B9016A
:100EA000B907B72AB72A4108013A031D582F592F0D
:100EB0009F2FC70106160030AD000030AE00003095
:100EC000AF0046144B08F101F1074A08F001F007A2
:100ED0008030F2007030F3000A128A1563200A1283
:100EE0008A117108FA01FA077008F901F9070A1660
:100EF0008A112C260A128A11790883120313B3006F
:100F00007A08B4007B08B5004B08F601F6074A08DA
:100F1000F501F5070E300A168A1124250A128A11E6
:100F2000831203133308F5003408F6003508F70080
:100F30000B300A168A1135250A128A11D52F831211
:100F400003134108023A031DA62FA72FB92F013022
:100F5000CA070318CB0A0030CB074B08CD01CD07D9
:100F60004A08CC01CC070A168A1191260A128A1166
:100F7000D52F831203134108033A031DC02FC12F3D
:100F8000D52FFF30CA070318CB0AFF30CB074B0819
:100F9000CD01CD074A08CC01CC070A168A1191264B
:100FA0000A128A11D52FD52FD52F4E308312031355
:100FB000EC00EB30EB00EB0BDB2FEC0BDB2F8312A9
:100FC0000313C1010030A7000030A8000030A900C1
:100FD000003083160313A3000030A2000030A100EC
:100FE0000030A00083120313B901BA01B72AB72A4F
:100FF000B72AB72AB72AB72AB72A0A128A110028AD
:101004007208710470040319082809280C28803018
:10101400F2060C280D280800F3007008F20072088C
:10102400F4001428831603178C1819281A28142876
:101034001B287308FF3E831203178D007F30F200D4
:101044007208831603178C0559282828831603175A
:101054008C182D282E2828282F2874088400831300
:101064000008831203178C000130F2007208F407A1
:101074000130F20072088D078312031303108B1FD3
:1010840044284528462803148B13831603170C158C
:1010940055308D00AA308D008C140C11831203136B
:1010A400031C5528562859288B17592859280130CC
:1010B400F1027108FF3A031D60286128282862287C
:1010C4000800F601F11F672868287128F009F10962
:1010D400F00A0319F10AF6010314F60D7128F31F3F
:1010E400742875287F28F209F309F20A0319F30A10
:1010F4000130F4007408F6067F28F701F80171083E
:101104007004031986288728C528F5010314F50DF2
:10111400972801300310F00DF10DFF3E031D8C28BC
:101124000130F4007408F5079728F11F9A289B28CA
:101134008B289D289D2801300310F70DF80DFF3EE4
:10114400031D9E2871087302031DAA2870087202E9
:10115400031CAD28AE28B6287008F2027108031CDF
:10116400F303F3027714B62801300310F10CF00CEA
:10117400FF3E031DB7280130F502031DC228C32812
:101184009D28C528C5287608031DC928CF28F70936
:10119400F809F70A0319F80ACF287808F101F107CA
:1011A4007708F001F007D62808007308031DDB2830
:1011B400E328720871047004031DE128E228F92869
:1011C400E3280030F0000030F1000030F200512933
:1011D4005129F9280130F5007508F307013003108F
:1011E400F20CF10CF00CFF3E031DF128F928FE303F
:1011F4007205031DFE28FF28EC2817291729013042
:10120400F5007508F3070130F007003003180130CA
:10121400F107003003180130F20701300310F20C1B
:10122400F10CF00CFF3E031D1029FF307205031D65
:101234001C291D2901292A292A290130F3020130F8
:101244000310F00DF10DF20DFF3E031D22292A2992
:10125400F11F2D292E291F297318312932293829E4
:10126400FF30F0057F30F105FF30F2050310F30C79
:101274007308F500F601F70110300310F50DF60DB3
:10128400F70DFF3E031D3F297508F0047608F104AD
:101294007708F2047408031D50295129F217080035
:1012A400831203138818572958297B29C108031D61
:1012B4005C295D296F298718602961296F294E30BF
:1012C400F100EB30F000F00B6529F10B6529831276
:1012D4000313C1010314C10D6F294108013A031D11
:1012E40074297529CD29EF15871C7929EF11CD298A
:1012F400CD2908187E297F29A329C108031D832924
:101304008429972987188729882997294E30F1003D
:10131400EB30F000F00B8C29F10B8C290230F0003B
:10132400700883120313C100EF104108023A031D31
:101334009C299D29CD29EF15871CA129EF11CD29C1
:10134400CD290819A629A729CD29C108031DAB2930
:10135400AC29BF298718AF29B029BF294E30F10025
:10136400EB30F000F00BB429F10BB4290330F0009A
:10137400700883120313C100EF144108033A031DDC
:10138400C429C529CD29EF15871CC929EF11CD29F9
:10139400CD29CD29CD2908007408031DD229DB29C4
:1013A4007308720471047004031DD929DA29F4291D
:1013B400DB290030F3000030F2000030F10000308F
:1013C400F000582A582AF4290130F6007608F40768
:1013D40001300310F30CF20CF10CF00CFF3E031D72
:1013E400EB29F429FE307305031DF929FA29E629AE
:1013F400172A172A0130F6007608F4070130F0079F
:10140400003003180130F107003003180130F207EF
:10141400003003180130F30701300310F30CF20C11
:10142400F10CF00CFF3E031D0F2AFF307305031D62
:101434001C2A1D2AFC292B2A2B2A0130F4020130F4
:10144400F6000310F00DF10DF20DF30DF60B232A47
:101454002B2AF21F2E2A2F2A1F2A7418322A332AE3
:101464003B2AFF30F005FF30F1057F30F205FF30F5
:10147400F3050310F40C7408F600F701F801F90100
:1014840018300310F60DF70DF80DF90DFF3E031D8E
:10149400432A7608F0047708F1047808F2047908FE
:1014A400F3047508031D572A582AF3170800F31F7D
:1014B4005C2A5D2A912A003083120313CC00003089
:1014C400CD000030CE008030CF007009D00071090B
:1014D400D1007209D2007309D300D00A0319D10ACA
:1014E4000319D20A0319D30A5008CC075108031868
:1014F400510F7D2A7E2ACD0752080318520F832AE2
:10150400842ACE0753080318530ACF074F08F30061
:101514004E08F2004D08F1004C08F000912AF71F24
:10152400942A952AC92A003083120313CC00003070
:10153400CD000030CE008030CF007409D000750992
:10154400D1007609D2007709D300D00A0319D10A51
:101554000319D20A0319D30A5008CC0751080318F7
:10156400510FB52AB62ACD0752080318520FBB2AC9
:10157400BC2ACE0753080318530ACF074F08F700B5
:101584004E08F6004D08F5004C08F400C92A8030D6
:10159400F3068030F70677087302031DDB2A76080A
:1015A4007202031DDB2A75087102031DDB2A74080D
:1015B40070020318DE2ADF2AE12A0310E42A031446
:1015C400E42AE42A0800831203136A0869046804FD
:1015D400031DED2AEE2AF52A6508A7006608A8006F
:1015E4006708A900F52A6F1EF82AF92A442B270850
:1015F400F8002808F9002908FA006508FB006608C5
:10160400FC006708FD000A168A1190270A128A1541
:1016140003180D2B0E2B292B831203136808D200F9
:101624006908D3006A08D4002708D5002808D60022
:101634002908D7000A128A1549250A128A15831225
:1016440003135208A7005308A8005408A9008312E2
:1016540003132708D2002808D3002908D400360829
:10166400D5003708D6003808D7000A128A1549254C
:101674000A128A15831203135208B6005308B700DE
:101684005408B8003608F8003708F9003808FA009A
:101694000030FB008030FC003F30FD000A168A1148
:1016A40090270A128A15031C582B592B782B0030CB
:1016B40083120313DF008030E0003F30E10036087E
:1016C400E2003708E3003808E4000A168A11E82526
:1016D4000A128A15831203135F08B6006008B70064
:1016E4006108B80003147B2B7B2B7B2B03107B2B13
:1016F4007B2B08007008F4007108F5007208F600EE
:101704000310750D760DF7007708FD00FD08031D25
:101714008C2B8D2B972B0030F3000030F20000301F
:10172400F1000030F0001F2C1F2C7008F400710829
:10173400F5007208F60017300310F60CF50CF40CE3
:10174400FF3E031D9E2B7408F7007708F800F1177D
:10175400FF30F005FF30F1050030F2057008F900A4
:101764007108FA007208FB00FC018E30FD02FD1FB7
:10177400BC2BBD2BE22B7D08803A8F3E0318C32B74
:10178400C42BCF2B0030F3000030F2000030F10006
:101794000030F0001F2C1F2CCF2B01300310FC0C49
:1017A400FB0CFA0CF90CFF3E031DD02B0130F400A6
:1017B4007408FD07031DDF2BE02BCF2B062C062C12
:1017C40018307D02031CE72BE82BFF2B0030F300BD
:1017D4000030F2000030F1000030F0001F2C1F2C0C
:1017E400FF2B0130F4000310F90DFA0DFB0DFC0D75
:1017F400F40BF52B0130FD02FF2BFD08031D032C18
:10180400042CF32B062C062C7808031D0A2C162C0A
:10181400F909FA09FB09FC09F90A0319FA0A031977
:10182400FB0A0319FC0A162C7C08F3007B08F2005F
:101834007A08F1007908F0001F2C08004E3083125A
:101844000313EC00EB30EB00EB0B262CEC0B262CFB
:101854000730831603139F00303085000F30860055
:1018640003308700F030880007308900C8308100D9
:10187400073083120313EB006B08C6000030051A0F
:101884000130EB0049086B06FE396B06C9000030D5
:10189400851A0130EB00EB0D49086B06FD396B0628
:1018A400C9008616061600300A128A1103200A128D
:1018B4008A15780883120313D4007708D3007608B6
:1018C400D2007508D1000A168A11DD260A128A157B
:1018D400831203135108AA005208AB005308AC004A
:1018E40004300A128A1103200A128A157808831216
:1018F4000313D4007708D3007608D2007508D1000A
:101904000A168A11DD260A128A1583120313510856
:10191400B0005208B1005308B2000E300A168A1102
:1019240084250A128A15760883120313CB01CB0788
:101934007508CA01CA070B300A168A119B250A12B8
:101944008A15750883120313B3007608B400770868
:10195400B50008300A168A119B250A128A157508E3
:1019640083120313A4007608A5007708A600BA2CF6
:10197400831203136F126F100B1DC12CC42C0A1297
:101984008A110B290B116F140130EB006B08C80787
:1019940048080C3A031DCF2CD22C0A128A110529AF
:1019A400C8016F164619D72CD82C082D831603139B
:1019B400390883120313C001C007831603133808C0
:1019C40083120313BF01BF07E830F0000330F100B6
:1019D4000A168A11C9250A128A15031CF22CF32C43
:1019E400F92C831203134615BF01C001F92C83128D
:1019F4000313400883160313B901B90783120313B1
:101A04003F0883160313B801B807082D8312C619BB
:101A14000C2D0D2D132D8718102D112D132DC615DA
:101A2400132DC618162D192D0A128A11E6288316AD
:101A34000313330883120313C001C007831603136F
:101A4400320883120313BF01BF07E830F0000330EC
:101A5400F1000A168A11C9250A128A15031C332DAE
:101A6400342D3A2D83120313C614BF01C0013A2D3D
:101A740083120313400883160313B301B3078312BD
:101A840003133F0883160313B201B207162D831202
:101A940003135208D8005308D9005408DA0003107D
:101AA400590D5A0DDB005B08DE005508D8005608B6
:101AB400D9005708DA000310590D5A0DDB005B08F2
:101AC400DD005E08031D672D782D5D085E02031896
:101AD4006C2D6D2D802D5E03FF3A5D07D800193003
:101AE4005802031C762D772D802D782D5508D200B1
:101AF4005608D3005708D4008E2E8E2E5D08031D81
:101B0400842D942D5E085D020318892D8A2D952D50
:101B14005D03FF3A5E07D80019305802031C932D69
:101B2400942D952D8E2E0630D8005808DC00D41F35
:101B34009C2D9D2D9E2DDC17D71FA12DA22DA32DED
:101B44005C17D317FF30D205FF30D3050030D4051E
:101B5400D617FF30D505FF30D6050030D7055D0810
:101B64005E020318B62DB72DE82DB82D01300310F1
:101B7400D50DD60DD70DFF3E031DB92D0130DD0265
:101B84005D085E060319C72DC82DE02D0130DC0267
:101B94005C080739031DCF2DD02DB82DE02DE02D85
:101BA400E02D01300310D40CD30CD20CFF3E031DE6
:101BB400D42D0130D8005808DE07E02D5E085D06FC
:101BC400031DE52DE62DD32D1F2E1F2E5E085D026D
:101BD4000318ED2DEE2D1F2EEF2D01300310D20D25
:101BE400D30DD40DFF3E031DF02D0130DE025D0840
:101BF4005E060319FE2DFF2D172E0130DC025C0852
:101C04000739031D062E072EEF2D172E172E172E1C
:101C140001300310D70CD60CD50CFF3E031D0B2E40
:101C24000130D8005808DD07172E5E085D06031D35
:101C34001C2E1D2E0A2E1F2E1F2EDC1F222E232E9D
:101C4400342EFF30D206FF30D306FF30D4060130E5
:101C5400D207003003180130D307003003180130D5
:101C6400D407342E5C1F372E382E492EFF30D5066C
:101C7400FF30D606FF30D7060130D50700300318F1
:101C84000130D607003003180130D707492EDC0194
:101C94005208D507530803110318530A0319532E86
:101CA400D607540803110318540A03195A2ED707E8
:101CB400D71F5D2E5E2E722EFF30D506FF30D6065E
:101CC400FF30D7060130D507003003180130D6079E
:101CD400003003180130D707DC010314DC0D722E29
:101CE4005508F0005608F1005708F2005E08D800C5
:101CF4005808F3005C08D9005908F4000A128A1540
:101D0400D7200A128A15700883120313D2007108AF
:101D1400D3007208D4008E2E0800831203134C08DB
:101D2400D4004D08D5004E08D6004F08D700031044
:101D3400560D570DD8005808FC005008D40051081F
:101D4400D5005208D6005308D7000310560D570D7E
:101D5400D8005808FB007C08031DB12EC22E7B0856
:101D64007C020318B62EB72ECC2E7C03FF3A7B07D9
:101D7400D40021305402031CC02EC12ECC2EC22EFE
:101D84005308CF005208CE005108CD005008CC00B3
:101D9400FF2FFF2F7B08031DD02EE02E7C087B0233
:101DA4000318D52ED62EE12E7B03FF3A7C07D400F0
:101DB40021305402031CDF2EE02EE12EFF2F0630CB
:101DC400D4005408FA00CF1FE82EE92EEA2EFA17A1
:101DD400D31FED2EEE2EEF2E7A17CE17FF30CC0543
:101DE400FF30CD05FF30CE050030CF05D217FF30D0
:101DF400D005FF30D105FF30D2050030D3057B0874
:101E04007C020318062F072F3A2F082F0130D40025
:101E14000310D00DD10DD20DD30DD40B0A2F0130E8
:101E2400FB027B087C060319182F192F322F01306F
:101E3400FA027A080739031D202F212F082F322F89
:101E4400322F322F01300310CF0CCE0CCD0CCC0C22
:101E5400FF3E031D252F0130D4005408FC07322F08
:101E64007C087B06031D372F382F242F732F732FE5
:101E74007C087B0203183F2F402F732F412F013022
:101E8400D4000310CC0DCD0DCE0DCF0DD40B432FAC
:101E94000130FC027B087C060319512F522F6B2F53
:101EA4000130FA027A080739031D592F5A2F412F9E
:101EB4006B2F6B2F6B2F01300310D30CD20CD10C72
:101EC400D00CFF3E031D5E2F0130D4005408FB07E5
:101ED4006B2F7C087B06031D702F712F5D2F732FD2
:101EE400732FFA1F762F772F8E2FFF30CC06FF30FB
:101EF400CD06FF30CE06FF30CF060130CC070030D0
:101F040003180130CD07003003180130CE0700302C
:101F140003180130CF078E2F7A1F912F922FA92FEC
:101F2400FF30D006FF30D106FF30D206FF30D30693
:101F34000130D007003003180130D10700300318F6
:101F44000130D207003003180130D307A92FFA015A
:101F54004C08D0074D0803110318013E0319B32F91
:101F6400D1074E0803110318013E0319BA2FD207F3
:101F74004F0803110318013E0319C12FD307D31FC0
:101F8400C42FC52FDF2FFF30D006FF30D106FF301E
:101F9400D206FF30D3060130D007003003180130D9
:101FA400D107003003180130D20700300318013084
:101FB400D307FA010314FA0DDF2F5308F300520874
:101FC400F2005108F1005008F0007C08D4005408D5
:101FD400F4007A08D5005508F5000A128A15CE21B6
:101FE4000A128A15730883120313CF007208CE00F5
:0C1FF4007108CD007008CC00FF2F080021
:102A380064008001840A04060319003404061D2D6D
:102A4800F9007530F7007708F0000230F8007808D0
:102A5800F10079080A128A150E200A168A11342DF7
:102A68000800FA007530F8007808F0000330F90023
:102A78007908F1007A080A128A150E200A168A11B6
:102A8800452D080083120313D2004C30D0005008A3
:102A9800F0000430D1005108F10052080A128A15DA
:102AA8000E200A168A11582D0800F10071185D2DA4
:102AB800612D831203138617642D83120313861363
:102AC80006170230F000F00B672D6A2D83120313EE
:102AD80006130800EF018313203084004C300A16D7
:102AE8008A111C250A168A11A0308400BA300A16E9
:102AF8008A111C250A168A1183010A128A15202CAC
:102B0800F9007908F7007708F0000230F800780833
:102B1800F1007A300A168A1156260A168A117B089D
:102B2800F601F6077A08F501F5079A2D0800FA006C
:102B38007A08F8007808F0000330F9007908F10005
:102B48007B300A168A1156260A168A117B08F50068
:102B58007C08F6007D08F700B12D08007808F00021
:102B68007908F100F2018E30FB007B08F300F401D4
:102B78000A128A15D7200A168A117008F8007108F7
:102B8800F9007208FA00C82D0800831203134008E0
:102B98007102031DD12D3F087002031CD42DD52DC1
:102BA800E42D6F1ED82DD92DE02D0130BF07031855
:102BB800C00A0030C007E02D0310E72DE72DE72DF0
:102BC8000314E72DE72D0800803083120313E10674
:102BD8006208D2006308D3006408D4005F08D500F7
:102BE8006008D6006108D7000A128A1549250A1616
:102BF8008A11831203135208DF005308E0005408B7
:102C0800E100062E0800803083120313DC065C08FE
:102C1800CF005B08CE005A08CD005908CC006008E8
:102C2800D3005F08D2005E08D1005D08D0000A1208
:102C38008A158F260A168A11831203134F08DC009F
:102C48004E08DB004D08DA004C08D9002B2E08008E
:102C580083120313CC01FA1F322E332E3C2EF909AE
:102C6800FA09F90A0319FA0ACC010314CC0D3C2E0F
:102C78007908F0007A08F100F2018E30FC007C0837
:102C8800F3004C08FD007D08F4000A128A15D720CD
:102C98000A168A117008F9007108FA007208FB0018
:102CA800552E0800F3007308F2007208F4005C2E39
:102CB800831603178C18612E622E5C2E632E700803
:102CC800831203178D00872E692E831603178C181D
:102CD8006E2E6F2E692E702E7F30F20072088C05D2
:102CE8000C14831203170C08F2007408840072088D
:102CF800831380000130F2007208F4070130F200FB
:102D080072088D07872E0130F1027108FF3A031D02
:102D18008E2E8F2E692E902E08006430F000003021
:102D2800F100831203134D08F301F3074C08F20175
:102D3800F2070A168A112A270A168A1170088312BE
:102D48000313CE004E08C2000A30F0000030F10034
:102D58004208CE00CF014E08F2004F08F3000A16D1
:102D68008A112A270A168A11700883120313D000C1
:102D78005008C3000A30F0000030F1004308CE00CC
:102D8800CF01CE09CF09CE0A0319CF0A42084E0750
:102D9800F2004F0803184F0AF3000A128A1563203D
:102DA8000A168A11700883120313D0005008C40051
:102DB800080083120313D6018E30FB007B08D50070
:102DC800D41FE72EE82E062FD109D209D309D4093A
:102DD800D10A0319D20A0319D30A0319D40AD6014E
:102DE8000314D60D062F062F01300310D40CD30C74
:102DF800D20CD10CFF3E031DF92E0130FB007B08DD
:102E0800D507062FFF305405031D0B2F0C2FF82E66
:102E18000D2F5108F0005208F1005308F200550830
:102E2800FB007B08F3005608FC007C08F4000A123B
:102E38008A15D7200A168A11700883120313D10045
:102E48007108D2007208D300292F0800F601F31F79
:102E58002E2F2F2F382FF209F309F20A0319F30A3C
:102E6800F6010314F60D382FF11F3B2F3C2F422F8C
:102E7800F009F109F00A0319F10A422F71087004E8
:102E88000319472F482F7E2FF5010314F50D582FEE
:102E980001300310F00DF10DFF3E031D4D2F0130E1
:102EA800F4007408F507582FF11F5B2F5C2F4C2F87
:102EB8005E2F5E2F71087302031D642F7008720263
:102EC800031C672F682F6F2F7008F2027108031C0C
:102ED800F303F3026F2F01300310F10CF00CFF3EE7
:102EE800031D702F0130F502031D7B2F7C2F5E2FF1
:102EF8007E2F7E2F7608031D822F882FF209F30973
:102F0800F20A0319F30A882F7308F101F10772080E
:102F1800F001F0078F2F0800FA1F932F942FBC2F72
:102F2800003083120313CC000030CD008030CE0077
:102F38007809CF007909D0007A09D100CF0A03199E
:102F4800D00A0319D10A4F08CC0750080318500FAC
:102F5800AE2FAF2FCD0751080318510FB42FB52F3F
:102F6800CE074C08F8004D08F9004E08FA00BC2FAF
:102F7800FD1FBF2FC02FE82F003083120313CC0092
:102F88000030CD008030CE007B09CF007C09D00016
:102F98007D09D100CF0A0319D00A0319D10A4F08B5
:102FA800CC0750080318500FDA2FDB2FCD07510834
:102FB8000318510FE02FE12FCE074C08FB004D08F6
:102FC800FC004E08FD00E82F8030FA068030FD0630
:102FD8007D087A02031DF62F7C087902031DF62F5F
:102FE8007B0878020318F92FFA2FFC2F0310FF2F04
:082FF8000314FF2FFF2F080056
:02400E0072FF3F
:1042000000000000000000000000000000000000AE
:10421000000000000000000000000000000000009E
:00000001FF
